S1230017CE001733C9094D33C9000033C90000108EC8808E00062708A6C0A7A0301F26F8D3
S1230037108EC8868E001C27066FA0301F26FABD05205D2F037FCBFE7EF0003460327AAF4E
S1230057E4EE6E8E0000AF62118300002736ECE410AE6230ABE684E764EC6C30ABE684E7B1
S1230077651F20C30001ED62335FE664E16527D8C6FFE762E664E1652504C601E762E6626E
S1230097326635E06F62E662326635E03460327CAFE4AE6C271FCE0000EF62ECE4AE62316D
S12300B78BEC6A308BE684E7A4EC62C30001ED6210A36C26E6AEE4326435E03460327CAFDA
S12300D7E4AC6A242CAE6C2722CE0000EF62ECE4AE62318BEC6A308BE684E7A4EC62C30086
S12300F701ED62AE6C3406ACE126E3AEE4326435E0EE6C27F61F30C3FFFFED62EC6AEE62F2
S123011730CBECE431CB2007EC62C3FFFFED62E684E7A4313F301FEE6226EDAEE432643504
S11E0137E034603184EE66270E1E0233CB1E02E7803440ACE126F830A435E04A
S1230152A6627EF2C31F107EF2C334401F13BDF37335C034401F13BDF37835C03440A664ED
S12301721F13BDF37A35C034401F10EE64BDF37A35C034401F13BDF38535C034401F13BDD1
S1230192F38A35C034401F13BDF38C35C0A6627EF391A6627EF39334401F13BDF49535C009
S12301B23440BDF49835C01F987EF4331F987EF434A6627EF3DFA6627EF3D81F987EF3DA13
S12301D2A6627EF3B71F987EF3B9A6627EF3BE34401F98EE64BDF61F35C03440EE64BDF604
S12301F22235C03440EE64BDF62B35C0BDF5111F8939BDF5171F89391F98BDF57E1F893923
S1230212A662BDF5841F01391F98BDF5DB1F8939BDF5EF1F01391F98BDF65B1F0139BDF641
S12302325D1F89391F98BDF6611F8939BDF6631F8939EC627EF54834401F98EE64BDF67F0F
S123025235C034401F98EE64BDF67F35C0A6627EF5521F987EF1B43460A666BDF7A935E036
S123027234601F981F12BDF83535E034401F98BDF85E35C0EC627EF87C3440EE64BDF8C738
S12302921F8935C03440EE64BDF8D835C0A6627EF256A6627EF25934401F13BDF27D35C0FD
S12302B23440EE64BDF28435C03440BDF28935C034601F13BDF68735E034401F13BDF68D9E
S12302D235C03440EE64BDF69035C034601F13BDF69235E034401F13BDF92E35C0A6627EF0
S12302F2F2FC1F107EF2FCA6627EF3121F107EF3121F987EF2AB3460A66610AE67EE69BD77
S1230312F8E5C600C90035E03460A66610AE67EE69BDF8F3C600C90035E03420A66410AEC2
S123033265BDF8FFC600C90035A0A662BDF5FF1F0139A662BDF6011F01391F98BDF6031F77
S123035201393440A664EE65BDF61035C03440EE64BDF61335C03440EE64BDF61635C0348B
S1230372201F12BDEA5D35A034201F12BDEA6D35A0342010AE64BDEA7F35A0342010AE64E8
S1230392BDEA8D35A034601F12EE66BDEAA835E03420A664BDE7B535A03420A664BDE7D261
S12003B235A0BDEA5D1F01393460BDEACF35E03460BDEAB435E03460BDEAF035E095
S11A00006720474345203230323180FD0DF850F0E2504F4E47800052
S12303CF327B7FC89A7FC89B70C880BD0204E7E4F6C880E763E6E4A6633D1F011F10E76224
S12303EF1F102D546762676267626762676267626863E662EB63F7C89CBD0204E7E4F6C87C
S123040F80E764E6E4A6643D1F011F10E7611F102D2F67616761676167616761676168644F
S123042FE661EB64F7C89D7FC8A07FC8A17FC89EC601F7C89F326539E662CB3FE76216FF5E
S123044FA3E661CB3FE76120C9327B7FC81F7FC8207FC8217FC822C601F7C8568EFF26BFCB
S123046FC8868EC88CBDF84F8EC893BDF84FC680F7C892F7C899C6EEF7C888C664F7C889EC
S123048FC6EEF7C88AC69CF7C88B7FC89A7FC89B70C880BD0204E7E4F6C880E763E6E4A69F
S12304AF633D1F011F10E7621F102D546762676267626762676267626863E662EB63F7C86B
S12304CF9CBD0204E7E4F6C880E764E6E4A6643D1F011F10E7611F102D2F676167616761CB
S12304EF6761676167616864E661EB64F7C89D7FC8A07FC8A17FC89EC601F7C89F3265392A
S123050FE662CB3FE76216FFA3E661CB3FE76120C932E8ED7FC81F7FC8207FC8217FC8224E
S123052FC601F7C8568EFF26BFC8868EC88CBDF84F8EC893BDF84FC680F7C892F7C899C684
S123054FEEF7C888C664F7C889C6EEF7C88AC69CF7C88B7FC89A7FC89B70C880BD0204E713
S123056FE4F6C880E76DE6E4A66D3D1F011F10E7661F10102D03CC67666766676667666766
S123058F666766686DE666EB6DF7C89CBD0204E7E4F6C880E76EE6E4A66E3D1F011F10E7CF
S12305AF651F10102D03A5676567656765676567656765686EE665EB6EF7C89D7FC8A07FAB
S12305CFC8A17FC89EC601F7C89F1601337DC89D102F01E4C612E7E25FBD02F9C612E7E2EC
S12305EF5FBD01C3C6F7E7E2BD01C3C609E7E2BD02F9C6F7E7E2C609BD01C332657CC8A060
S123060FF6C8A0C1092F0D7DC89E102701D87FC89E7FC8A0BDF354C67FBD0303C67EE7E28B
S123062FCB06BD02F98EC881BDF3CEC67FE7E2C67CBD02F9C67FE7E2C67CBD02F98EC881E2
S123064FBDF3CEC67FE7E2CB05BD02F9F6C80FE76B3264C501270CF6C888C1892D05CBFD3B
S123066FF7C888C602E467270CF6C888C1532E05CB03F7C888C604E467270CF6C88AC1895E
S123068F2D05CBFDF7C88AC608E467270CF6C88AC1532E05CB03F7C88AF6C889E7E2F6C844
S12306AF88BD02F96FE2C624BD01C3C6F8E7E25FBD01C36FE2C6DCBD01C3C608E7E25FBD9D
S12306CF01C3F6C88850E765F6C889503404E666BD02F9F6C88BE7E2F6C88ABD02F96FE22B
S12306EFC624BD01C33268C6F8E7E25FBD01C36FE2C6DCBD01C3C608E7E25FBD01C33263FB
S123070FBDF1AFBEC886BD02C2BDF192BD02BBBDF1BAC67FBD0303C67FF7D004E7E28EC883
S123072F8CC6BEBD016EC680E7E28EC893CB3EBD016EF6C89EBD0303F6C89BE7E2F6C89AA4
S123074FBD01523263F6C8A1C104102FFE7FC67FF7C89EF6C89CFBC89AE76CF7C89AF6C83E
S123076F9DE76BFBC89BE76AF7C89BC17A102E0080C186102D01006D6B102F0171F6C88821
S123078FE16C2E23CB24E16C2D1DF6C889E769CBF6E16A2E12E66AE1692E0CE66B50F7C80B
S12307AF9D58EB6AF7C89BF6C89ACB78C1F01023FE6270C89C16FE5CC6EEE7E25FBD02F9CB
S12307CFC6EEE7E25FBD01C3C609E7E2C6F7BD01C3C6F7E7E2C609BD02F9C609E7E2BD0170
S12307EFC3326516FE17C67FF7C89E7CC8A116FE208EC893C601BD027D7FC89A7FC89B7087
S123080FC880BD0204E7E4F6C880E76FE6E4A66F3D1F011F10E7641F10102D010B676467FB
S123082F646764676467646764686FE664EB6FF7C89CBD0204E7E4F6C880E7E810E6E4A624
S123084FE8103D1F011F10E7631F10102D00D067636763676367636763676368E810E66316
S123086FEBE810F7C89D7FC8A07FC8A17FC89EC601F7C89F16FF308EC88CC601BD027D7FA4
S123088FC89A7FC89B70C880BD0204E7E4F6C880E7E811E6E4A6E8113D1F011F10E7621F40
S12308AF10102D009567626762676267626762676268E811E662EBE811F7C89CBD0204E7FB
S12308CFE4F6C880E7E812E6E4A6E8123D1F011F10E7611F102D5A67616761676167616787
S12308EF61676168E812E661EBE81216FF756D6B1027FEB3F6C88AE16C102EFEAACB24E199
S123090F6C102DFEA2F6C88BE768CBF8E16A102EFE956A68E66AE168102CFE8B16FE7CE65E
S123092F63CB3FE76316FF27E664CB3FE76416FEECE661CB3FE76116FF9DE662CB3FE7622C
S118094F16FF62E666CB3FE76616FC2BE665CB3FE76516FC5233
S9030000FC
