S1230017CE001733C9072333C9000033C90000108EC8808E00012708A6C0A7A0301F26F804
S1230037108EC8818E001C27066FA0301F26FABD04525D2F037FCBFE7EF0003460327AAF22
S1230057E4EE6E8E0000AF62118300002736ECE410AE6230ABE684E764EC6C30ABE684E7B1
S1230077651F20C30001ED62335FE664E16527D8C6FFE762E664E1652504C601E762E6626E
S1230097326635E06F62E662326635E03460327CAFE4AE6C271FCE0000EF62ECE4AE62316D
S12300B78BEC6A308BE684E7A4EC62C30001ED6210A36C26E6AEE4326435E03460327CAFDA
S12300D7E4AC6A242CAE6C2722CE0000EF62ECE4AE62318BEC6A308BE684E7A4EC62C30086
S12300F701ED62AE6C3406ACE126E3AEE4326435E0EE6C27F61F30C3FFFFED62EC6AEE62F2
S123011730CBECE431CB2007EC62C3FFFFED62E684E7A4313F301FEE6226EDAEE432643504
S11E0137E034603184EE66270E1E0233CB1E02E7803440ACE126F830A435E04A
S1230152A6627EF2C31F107EF2C334401F13BDF37335C034401F13BDF37835C03440A664ED
S12301721F13BDF37A35C034401F10EE64BDF37A35C034401F13BDF38535C034401F13BDD1
S1230192F38A35C034401F13BDF38C35C0A6627EF391A6627EF39334401F13BDF49535C009
S12301B23440BDF49835C01F987EF4331F987EF434A6627EF3DFA6627EF3D81F987EF3DA13
S12301D2A6627EF3B71F987EF3B9A6627EF3BE34401F98EE64BDF61F35C03440EE64BDF604
S12301F22235C03440EE64BDF62B35C0BDF5111F8939BDF5171F89391F98BDF57E1F893923
S1230212A662BDF5841F01391F98BDF5DB1F8939BDF5EF1F01391F98BDF65B1F0139BDF641
S12302325D1F89391F98BDF6611F8939BDF6631F8939EC627EF54834401F98EE64BDF67F0F
S123025235C034401F98EE64BDF67F35C0A6627EF5521F987EF1B43460A666BDF7A935E036
S123027234601F981F12BDF83535E034401F98BDF85E35C0EC627EF87C3440EE64BDF8C738
S12302921F8935C03440EE64BDF8D835C0A6627EF256A6627EF25934401F13BDF27D35C0FD
S12302B23440EE64BDF28435C03440BDF28935C034601F13BDF68735E034401F13BDF68D9E
S12302D235C03440EE64BDF69035C034601F13BDF69235E034401F13BDF92E35C0A6627EF0
S12302F2F2FC1F107EF2FCA6627EF3121F107EF3121F987EF2AB3460A66610AE67EE69BD77
S1230312F8E5C600C90035E03460A66610AE67EE69BDF8F3C600C90035E03420A66410AEC2
S123033265BDF8FFC600C90035A0A662BDF5FF1F0139A662BDF6011F01391F98BDF6031F77
S123035201393440A664EE65BDF61035C03440EE64BDF61335C03440EE64BDF61635C0348B
S1230372201F12BDEA5D35A034201F12BDEA6D35A0342010AE64BDEA7F35A0342010AE64E8
S1230392BDEA8D35A034601F12EE66BDEAA835E03420A664BDE7B535A03420A664BDE7D261
S12003B235A0BDEA5D1F01393460BDEACF35E03460BDEAB435E03460BDEAF035E095
S11A00006720474345203230323180FD0DF850F0E2504F4E47800052
S12303CF7FC8957FC896F6C88050F7C880F7C897F7C8987FC89B7FC89C7FC899C601F7C8AC
S12303EF9A397FC81F7FC8207FC8217FC822C601F7C8568EFF26BFC8818EC887BDF84F8E73
S123040FC88EBDF84FC680F7C88DF7C894C6EEF7C883C664F7C884C6EEF7C885C69CF7C80E
S123042F867FC8957FC896F6C88050F7C880F7C897F7C8987FC89B7FC89C7FC899C601F78D
S123044FC89A3932767FC81F7FC8207FC8217FC822C601F7C8568EFF26BFC8818EC887BD77
S123046FF84F8EC88EBDF84FC680F7C88DF7C894C6EEF7C883C664F7C884C6EEF7C885C634
S123048F9CF7C8867FC8957FC896F6C88050F7C880F7C897F7C8987FC89B7FC89C7FC89990
S12304AFC601F7C89A1601147DC898102F01E0C612E7E25FBD02F9C612E7E25FBD01C3C6E2
S12304CFF7E7E2BD01C3C609E7E2BD02F9C6F7E7E2C609BD01C332657CC89BF6C89BC10909
S12304EF2F0D7DC899102701D47FC8997FC89BBDF354C67FBD0303C67EE7E2CB06BD02F95F
S123050FC681E7E25FBD01C3C681E7E25FBD01C36FE2C67CBD02F96FE2C67CBD02F9C67F0D
S123052FE7E25FBD01C3C67FE7E25FBD01C3C682E7E2CB02BD02F9F6C80FE7693268C501FE
S123054F270CF6C883C1892D05CBFDF7C883C602E461270CF6C883C1532E05CB03F7C883B6
S123056FC604E461270CF6C885C1892D05CBFDF7C885C608E461270CF6C885C1532E05CBC0
S123058F03F7C885F6C884E7E2F6C883BD02F96FE2C624BD01C3C6DCF0C883E762F6C884D9
S12305AF503404E663BD02F9F6C886E7E2F6C885BD02F96FE2C624BD01C33265BDF1AFBE29
S12305CFC881BD02C2BDF192BD02BBBDF1BAC67FBD0303C67FF7D004E7E28EC887C6BEBD1D
S12305EF016EC680E7E28EC88ECB3EBD016EF6C899BD0303F6C896E7E2F6C895BD01523285
S123060F63F6C89CC104102FFE9EC67FF7C899F6C897E769FBC895E768F7C895F6C898E7F0
S123062F67FBC896E766F7C8968EC88EC17A102E0099C186102D0090F6C883E765E069E184
S123064F68102E00AFE669EB65CB24E765E668E165102E009FF6C884E764E067E166102E8E
S123066F0092E664EB67E764E666E164102E0084E66750F7C89858EB66F7C896E668CB7818
S123068FC1F01023FE69E66950F7C89716FE60C6EEE7E25FBD02F9C6EEE7E25FBD01C3C6DC
S12306AF09E7E2C6F7BD01C3C6F7E7E2C609BD02F9C609E7E2BD01C3326516FE1BC67FF7EF
S12306CFC8997CC89C16FE248EC887C601BD027D7FC8957FC896F6C88050F7C880F7C897D2
S12306EFF7C8987FC89B7FC89C7FC899C601F7C89A16FDFBF6C885E763E069E168102EFF61
S123070F7BE669EB63CB24E763E668E163102EFF6BF6C886E762EB67E166102EFF5EE66232
S10E072FE067E166102DFF5416FF4543
S9030000FC
