S1230017CE001733C905C833C9000033C90000108EC8808E00002708A6C0A7A0301F26F862
S1230037108EC8808E001627066FA0301F26FABD04355D2F037FCBFE7EF0003460327AAF46
S1230057E4EE6E8E0000AF62118300002736ECE410AE6230ABE684E764EC6C30ABE684E7B1
S1230077651F20C30001ED62335FE664E16527D8C6FFE762E664E1652504C601E762E6626E
S1230097326635E06F62E662326635E03460327CAFE4AE6C271FCE0000EF62ECE4AE62316D
S12300B78BEC6A308BE684E7A4EC62C30001ED6210A36C26E6AEE4326435E03460327CAFDA
S12300D7E4AC6A242CAE6C2722CE0000EF62ECE4AE62318BEC6A308BE684E7A4EC62C30086
S12300F701ED62AE6C3406ACE126E3AEE4326435E0EE6C27F61F30C3FFFFED62EC6AEE62F2
S123011730CBECE431CB2007EC62C3FFFFED62E684E7A4313F301FEE6226EDAEE432643504
S11E0137E034603184EE66270E1E0233CB1E02E7803440ACE126F830A435E04A
S1230152A6627EF2C31F107EF2C334401F13BDF37335C034401F13BDF37835C03440A664ED
S12301721F13BDF37A35C034401F10EE64BDF37A35C034401F13BDF38535C034401F13BDD1
S1230192F38A35C034401F13BDF38C35C0A6627EF391A6627EF39334401F13BDF49535C009
S12301B23440BDF49835C01F987EF4331F987EF434A6627EF3DFA6627EF3D81F987EF3DA13
S12301D2A6627EF3B71F987EF3B9A6627EF3BE34401F98EE64BDF61F35C03440EE64BDF604
S12301F22235C03440EE64BDF62B35C0BDF5111F8939BDF5171F89391F98BDF57E1F893923
S1230212A662BDF5841F01391F98BDF5DB1F8939BDF5EF1F01391F98BDF65B1F0139BDF641
S12302325D1F89391F98BDF6611F8939BDF6631F8939EC627EF54834401F98EE64BDF67F0F
S123025235C034401F98EE64BDF67F35C0A6627EF5521F987EF1B43460A666BDF7A935E036
S123027234601F981F12BDF83535E034401F98BDF85E35C0EC627EF87C3440EE64BDF8C738
S12302921F8935C03440EE64BDF8D835C0A6627EF256A6627EF25934401F13BDF27D35C0FD
S12302B23440EE64BDF28435C03440BDF28935C034601F13BDF68735E034401F13BDF68D9E
S12302D235C03440EE64BDF69035C034601F13BDF69235E034401F13BDF92E35C0A6627EF0
S12302F2F2FC1F107EF2FCA6627EF3121F107EF3121F987EF2AB3460A66610AE67EE69BD77
S1230312F8E5C600C90035E03460A66610AE67EE69BDF8F3C600C90035E03420A66410AEC2
S123033265BDF8FFC600C90035A0A662BDF5FF1F0139A662BDF6011F01391F98BDF6031F77
S123035201393440A664EE65BDF61035C03440EE64BDF61335C03440EE64BDF61635C0348B
S1230372201F12BDEA5D35A034201F12BDEA6D35A0342010AE64BDEA7F35A0342010AE64E8
S1230392BDEA8D35A034601F12EE66BDEAA835E03420A664BDE7B535A03420A664BDE7D261
S12003B235A0BDEA5D1F01393460BDEACF35E03460BDEAB435E03460BDEAF035E095
S11A00006720474345203230323180FD0DF850F0E2504F4E47800052
S12303CF7FC8927FC893C602F7C894F7C895C6EEF7C880C664F7C881C6EEF7C882C69CF73D
S12303EFC883397FC81F7FC8207FC8217FC8228EC884BDF84F8EC88BBDF84FC680F7C88A76
S123040FF7C8917FC8927FC893C602F7C894F7C895C6EEF7C880C664F7C881C6EEF7C88205
S123042FC69CF7C883393279BD03F216004BE663C188102D0189F6C880E161102E0149CBE2
S123044F24E161102D0141F6C881E765E062E163102E0134E665EB62E765E663E165102E6F
S123046F0126E66250F7C89558EB63F7C893F6C892CB64C1C810220151BDF192BDF1BAC664
S123048F7FBD0303C67FF7D004E7E28EC8845CBD016EC680E7E28EC88BBD016EF6C893E778
S12304AFE2F6C892BD0152F6C89250E763F6C893503404E664BD02F9F6C80FE7683264C5AB
S12304CF01270CF6C880C19D2D05CBFDF7C880C602E464270CF6C880C13F2E05CB03F7C8BF
S12304EF80C604E464270CF6C882C19D2D05CBFDF7C882C608E464270CF6C882C13F2E058F
S123050FCB03F7C882F6C881E7E2F6C880BD02F96FE2C624BD01C3C6DCF0C880E762F6C81E
S123052F81503404E663BD02F9F6C883E7E2F6C882BD02F96FE2C624BD01C3F6C894FBC8CB
S123054F92E766F7C892F6C895E767FBC893E768F7C8933265C178102FFED38EC88BC60138
S123056FBD027D7FC8927FC893C602F7C894F7C895C6EEF7C880C664F7C881C6EEF7C882B8
S123058FC69CF7C88316FEE6F6C882E161102EFEDDCB24E161102DFED5F6C883E766EB62F3
S12305AFE163102EFEC8E666E062E163102DFEBEE66250F7C89558EB63F7C89316FEAF8EE0
S11305CFC884C601BD027D16FF9970C89416FEA992
S9030000FC
